{
  "_format": "hh-sol-artifact-1",
  "contractName": "Mapping",
  "sourceName": "contracts/Mapping.sol",
  "abi": [
    {
      "inputs": [
        {
          "internalType": "uint256",
          "name": "",
          "type": "uint256"
        }
      ],
      "name": "Contracts",
      "outputs": [
        {
          "internalType": "address",
          "name": "",
          "type": "address"
        }
      ],
      "stateMutability": "view",
      "type": "function"
    },
    {
      "inputs": [
        {
          "internalType": "address",
          "name": "_contract",
          "type": "address"
        }
      ],
      "name": "addContract",
      "outputs": [],
      "stateMutability": "nonpayable",
      "type": "function"
    },
    {
      "inputs": [],
      "name": "checkContracts",
      "outputs": [
        {
          "internalType": "address[]",
          "name": "",
          "type": "address[]"
        }
      ],
      "stateMutability": "view",
      "type": "function"
    }
  ],
  "bytecode": "0x608060405234801561001057600080fd5b50610409806100206000396000f3fe608060405234801561001057600080fd5b50600436106100415760003560e01c80630fd7225b146100465780635f539d69146100645780638a79550314610080575b600080fd5b61004e6100b0565b60405161005b919061030e565b60405180910390f35b61007e6004803603810190610079919061020d565b61013e565b005b61009a60048036038101906100959190610236565b6101a4565b6040516100a791906102f3565b60405180910390f35b6060600080548060200260200160405190810160405280929190818152602001828054801561013457602002820191906000526020600020905b8160009054906101000a900473ffffffffffffffffffffffffffffffffffffffff1673ffffffffffffffffffffffffffffffffffffffff16815260200190600101908083116100ea575b5050505050905090565b6000819080600181540180825580915050600190039060005260206000200160009091909190916101000a81548173ffffffffffffffffffffffffffffffffffffffff021916908373ffffffffffffffffffffffffffffffffffffffff16021790555050565b600081815481106101b457600080fd5b906000526020600020016000915054906101000a900473ffffffffffffffffffffffffffffffffffffffff1681565b6000813590506101f2816103a5565b92915050565b600081359050610207816103bc565b92915050565b60006020828403121561021f57600080fd5b600061022d848285016101e3565b91505092915050565b60006020828403121561024857600080fd5b6000610256848285016101f8565b91505092915050565b600061026b8383610277565b60208301905092915050565b61028081610369565b82525050565b61028f81610369565b82525050565b60006102a082610340565b6102aa8185610358565b93506102b583610330565b8060005b838110156102e65781516102cd888261025f565b97506102d88361034b565b9250506001810190506102b9565b5085935050505092915050565b60006020820190506103086000830184610286565b92915050565b600060208201905081810360008301526103288184610295565b905092915050565b6000819050602082019050919050565b600081519050919050565b6000602082019050919050565b600082825260208201905092915050565b60006103748261037b565b9050919050565b600073ffffffffffffffffffffffffffffffffffffffff82169050919050565b6000819050919050565b6103ae81610369565b81146103b957600080fd5b50565b6103c58161039b565b81146103d057600080fd5b5056fea26469706673582212202c6a7d48910d27be3357370562a3801d2e8315edd58d837c65f3f684adde80d864736f6c63430008040033",
  "linkReferences": {},
  "deployedLinkReferences": {}
}