{
  "_format": "hh-sol-artifact-1",
  "contractName": "MultiSig",
  "sourceName": "contracts/MultiSig.sol",
  "abi": [
    {
      "inputs": [
        {
          "internalType": "address[]",
          "name": "_owners",
          "type": "address[]"
        },
        {
          "internalType": "uint256",
          "name": "_required",
          "type": "uint256"
        },
        {
          "internalType": "address",
          "name": "_mappingContract",
          "type": "address"
        }
      ],
      "stateMutability": "nonpayable",
      "type": "constructor"
    },
    {
      "inputs": [
        {
          "internalType": "address",
          "name": "_newowner",
          "type": "address"
        }
      ],
      "name": "changeOwner",
      "outputs": [],
      "stateMutability": "nonpayable",
      "type": "function"
    },
    {
      "inputs": [
        {
          "internalType": "uint256",
          "name": "_txid",
          "type": "uint256"
        }
      ],
      "name": "confirmTransaction",
      "outputs": [],
      "stateMutability": "nonpayable",
      "type": "function"
    },
    {
      "inputs": [
        {
          "internalType": "uint256",
          "name": "",
          "type": "uint256"
        },
        {
          "internalType": "address",
          "name": "",
          "type": "address"
        }
      ],
      "name": "confirmations",
      "outputs": [
        {
          "internalType": "bool",
          "name": "",
          "type": "bool"
        }
      ],
      "stateMutability": "view",
      "type": "function"
    },
    {
      "inputs": [
        {
          "internalType": "uint256",
          "name": "_txid",
          "type": "uint256"
        }
      ],
      "name": "executeTransaction",
      "outputs": [],
      "stateMutability": "nonpayable",
      "type": "function"
    },
    {
      "inputs": [
        {
          "internalType": "uint256",
          "name": "_txid",
          "type": "uint256"
        }
      ],
      "name": "getConfirmationsCount",
      "outputs": [
        {
          "internalType": "uint256",
          "name": "",
          "type": "uint256"
        }
      ],
      "stateMutability": "view",
      "type": "function"
    },
    {
      "inputs": [],
      "name": "getOwners",
      "outputs": [
        {
          "internalType": "address[]",
          "name": "",
          "type": "address[]"
        }
      ],
      "stateMutability": "view",
      "type": "function"
    },
    {
      "inputs": [
        {
          "internalType": "uint256",
          "name": "_txid",
          "type": "uint256"
        }
      ],
      "name": "isConfirmed",
      "outputs": [
        {
          "internalType": "bool",
          "name": "",
          "type": "bool"
        }
      ],
      "stateMutability": "view",
      "type": "function"
    },
    {
      "inputs": [
        {
          "internalType": "address",
          "name": "",
          "type": "address"
        }
      ],
      "name": "isOwner",
      "outputs": [
        {
          "internalType": "bool",
          "name": "",
          "type": "bool"
        }
      ],
      "stateMutability": "view",
      "type": "function"
    },
    {
      "inputs": [
        {
          "internalType": "uint256",
          "name": "",
          "type": "uint256"
        }
      ],
      "name": "owners",
      "outputs": [
        {
          "internalType": "address",
          "name": "",
          "type": "address"
        }
      ],
      "stateMutability": "view",
      "type": "function"
    },
    {
      "inputs": [],
      "name": "required",
      "outputs": [
        {
          "internalType": "uint256",
          "name": "",
          "type": "uint256"
        }
      ],
      "stateMutability": "view",
      "type": "function"
    },
    {
      "inputs": [
        {
          "internalType": "address",
          "name": "_to",
          "type": "address"
        },
        {
          "internalType": "uint256",
          "name": "_value",
          "type": "uint256"
        },
        {
          "internalType": "bytes",
          "name": "_data",
          "type": "bytes"
        }
      ],
      "name": "submitTransaction",
      "outputs": [],
      "stateMutability": "nonpayable",
      "type": "function"
    },
    {
      "inputs": [],
      "name": "transactionCount",
      "outputs": [
        {
          "internalType": "uint256",
          "name": "",
          "type": "uint256"
        }
      ],
      "stateMutability": "view",
      "type": "function"
    },
    {
      "inputs": [
        {
          "internalType": "uint256",
          "name": "",
          "type": "uint256"
        }
      ],
      "name": "transactions",
      "outputs": [
        {
          "internalType": "address",
          "name": "to",
          "type": "address"
        },
        {
          "internalType": "uint256",
          "name": "value",
          "type": "uint256"
        },
        {
          "internalType": "enum MultiSig.status",
          "name": "executed",
          "type": "uint8"
        },
        {
          "internalType": "uint256",
          "name": "confirmCount",
          "type": "uint256"
        },
        {
          "internalType": "bytes",
          "name": "data",
          "type": "bytes"
        }
      ],
      "stateMutability": "view",
      "type": "function"
    },
    {
      "inputs": [
        {
          "internalType": "address",
          "name": "_to",
          "type": "address"
        }
      ],
      "name": "transferOwner",
      "outputs": [],
      "stateMutability": "nonpayable",
      "type": "function"
    },
    {
      "stateMutability": "payable",
      "type": "receive"
    }
  ],
  "bytecode": "0x60806040523480156200001157600080fd5b506040516200208138038062002081833981810160405281019062000037919062000398565b60008351116200004657600080fd5b600082116200005457600080fd5b82518211156200006357600080fd5b82600090805190602001906200007b9291906200021a565b508160028190555060005b83518110156200013e576001806000868481518110620000cf577f4e487b7100000000000000000000000000000000000000000000000000000000600052603260045260246000fd5b602002602001015173ffffffffffffffffffffffffffffffffffffffff1673ffffffffffffffffffffffffffffffffffffffff16815260200190815260200160002060006101000a81548160ff0219169083151502179055508080620001359062000501565b91505062000086565b5080600660006101000a81548173ffffffffffffffffffffffffffffffffffffffff021916908373ffffffffffffffffffffffffffffffffffffffff160217905550600660009054906101000a900473ffffffffffffffffffffffffffffffffffffffff1673ffffffffffffffffffffffffffffffffffffffff16635f539d69306040518263ffffffff1660e01b8152600401620001dd919062000418565b600060405180830381600087803b158015620001f857600080fd5b505af11580156200020d573d6000803e3d6000fd5b50505050505050620005f2565b82805482825590600052602060002090810192821562000296579160200282015b82811115620002955782518260006101000a81548173ffffffffffffffffffffffffffffffffffffffff021916908373ffffffffffffffffffffffffffffffffffffffff160217905550916020019190600101906200023b565b5b509050620002a59190620002a9565b5090565b5b80821115620002c4576000816000905550600101620002aa565b5090565b6000620002df620002d9846200045e565b62000435565b90508083825260208201905082856020860282011115620002ff57600080fd5b60005b858110156200033357816200031888826200033d565b84526020840193506020830192505060018101905062000302565b5050509392505050565b6000815190506200034e81620005be565b92915050565b600082601f8301126200036657600080fd5b815162000378848260208601620002c8565b91505092915050565b6000815190506200039281620005d8565b92915050565b600080600060608486031215620003ae57600080fd5b600084015167ffffffffffffffff811115620003c957600080fd5b620003d78682870162000354565b9350506020620003ea8682870162000381565b9250506040620003fd868287016200033d565b9150509250925092565b62000412816200048d565b82525050565b60006020820190506200042f600083018462000407565b92915050565b60006200044162000454565b90506200044f8282620004cb565b919050565b6000604051905090565b600067ffffffffffffffff8211156200047c576200047b6200057e565b5b602082029050602081019050919050565b60006200049a82620004a1565b9050919050565b600073ffffffffffffffffffffffffffffffffffffffff82169050919050565b6000819050919050565b620004d682620005ad565b810181811067ffffffffffffffff82111715620004f857620004f76200057e565b5b80604052505050565b60006200050e82620004c1565b91507fffffffffffffffffffffffffffffffffffffffffffffffffffffffffffffffff8214156200054457620005436200054f565b5b600182019050919050565b7f4e487b7100000000000000000000000000000000000000000000000000000000600052601160045260246000fd5b7f4e487b7100000000000000000000000000000000000000000000000000000000600052604160045260246000fd5b6000601f19601f8301169050919050565b620005c9816200048d565b8114620005d557600080fd5b50565b620005e381620004c1565b8114620005ef57600080fd5b50565b611a7f80620006026000396000f3fe6080604052600436106100e15760003560e01c8063a6f9dae11161007f578063c01a8c8411610059578063c01a8c8414610307578063c642747414610330578063dc8452cd14610359578063ee22610b14610384576100e8565b8063a6f9dae114610276578063b77bf6001461029f578063bce800e5146102ca576100e8565b80634fb2e45d116100bb5780634fb2e45d146101a4578063784547a7146101cd5780639ace38c21461020a578063a0e67e2b1461024b576100e8565b8063025e7c27146100ed5780632f54bf6e1461012a5780633411c81c14610167576100e8565b366100e857005b600080fd5b3480156100f957600080fd5b50610114600480360381019061010f9190611202565b6103ad565b60405161012191906114c9565b60405180910390f35b34801561013657600080fd5b50610151600480360381019061014c919061116d565b6103ec565b60405161015e9190611560565b60405180910390f35b34801561017357600080fd5b5061018e6004803603810190610189919061122b565b61040c565b60405161019b9190611560565b60405180910390f35b3480156101b057600080fd5b506101cb60048036038101906101c6919061116d565b61043b565b005b3480156101d957600080fd5b506101f460048036038101906101ef9190611202565b61057e565b6040516102019190611560565b60405180910390f35b34801561021657600080fd5b50610231600480360381019061022c9190611202565b6105a3565b6040516102429594939291906114e4565b60405180910390f35b34801561025757600080fd5b5061026061068e565b60405161026d919061153e565b60405180910390f35b34801561028257600080fd5b5061029d6004803603810190610298919061116d565b61071c565b005b3480156102ab57600080fd5b506102b461099a565b6040516102c1919061163b565b60405180910390f35b3480156102d657600080fd5b506102f160048036038101906102ec9190611202565b6109a0565b6040516102fe919061163b565b60405180910390f35b34801561031357600080fd5b5061032e60048036038101906103299190611202565b6109c0565b005b34801561033c57600080fd5b5061035760048036038101906103529190611196565b610bfe565b005b34801561036557600080fd5b5061036e610c1e565b60405161037b919061163b565b60405180910390f35b34801561039057600080fd5b506103ab60048036038101906103a69190611202565b610c24565b005b600081815481106103bd57600080fd5b906000526020600020016000915054906101000a900473ffffffffffffffffffffffffffffffffffffffff1681565b60016020528060005260406000206000915054906101000a900460ff1681565b60056020528160005260406000206020528060005260406000206000915091509054906101000a900460ff1681565b60005b60008054905081101561057a573373ffffffffffffffffffffffffffffffffffffffff166000828154811061049c577f4e487b7100000000000000000000000000000000000000000000000000000000600052603260045260246000fd5b9060005260206000200160009054906101000a900473ffffffffffffffffffffffffffffffffffffffff1673ffffffffffffffffffffffffffffffffffffffff16141561056757816000828154811061051e577f4e487b7100000000000000000000000000000000000000000000000000000000600052603260045260246000fd5b9060005260206000200160006101000a81548173ffffffffffffffffffffffffffffffffffffffff021916908373ffffffffffffffffffffffffffffffffffffffff1602179055505b808061057290611804565b91505061043e565b5050565b6000600254600460008481526020019081526020016000206003015410159050919050565b60046020528060005260406000206000915090508060000160009054906101000a900473ffffffffffffffffffffffffffffffffffffffff16908060010154908060020160009054906101000a900460ff169080600301549080600401805461060b906117d2565b80601f0160208091040260200160405190810160405280929190818152602001828054610637906117d2565b80156106845780601f1061065957610100808354040283529160200191610684565b820191906000526020600020905b81548152906001019060200180831161066757829003601f168201915b5050505050905085565b6060600080548060200260200160405190810160405280929190818152602001828054801561071257602002820191906000526020600020905b8160009054906101000a900473ffffffffffffffffffffffffffffffffffffffff1673ffffffffffffffffffffffffffffffffffffffff16815260200190600101908083116106c8575b5050505050905090565b600160003373ffffffffffffffffffffffffffffffffffffffff1673ffffffffffffffffffffffffffffffffffffffff16815260200190815260200160002060009054906101000a900460ff166107a8576040517f08c379a000000000000000000000000000000000000000000000000000000000815260040161079f906115db565b60405180910390fd5b60005b600080549050811015610996573373ffffffffffffffffffffffffffffffffffffffff1660008281548110610809577f4e487b7100000000000000000000000000000000000000000000000000000000600052603260045260246000fd5b9060005260206000200160009054906101000a900473ffffffffffffffffffffffffffffffffffffffff1673ffffffffffffffffffffffffffffffffffffffff16141561098357816000828154811061088b577f4e487b7100000000000000000000000000000000000000000000000000000000600052603260045260246000fd5b9060005260206000200160006101000a81548173ffffffffffffffffffffffffffffffffffffffff021916908373ffffffffffffffffffffffffffffffffffffffff16021790555060018060008473ffffffffffffffffffffffffffffffffffffffff1673ffffffffffffffffffffffffffffffffffffffff16815260200190815260200160002060006101000a81548160ff0219169083151502179055506000600160003373ffffffffffffffffffffffffffffffffffffffff1673ffffffffffffffffffffffffffffffffffffffff16815260200190815260200160002060006101000a81548160ff0219169083151502179055505b808061098e90611804565b9150506107ab565b5050565b60035481565b600060046000838152602001908152602001600020600301549050919050565b600160003373ffffffffffffffffffffffffffffffffffffffff1673ffffffffffffffffffffffffffffffffffffffff16815260200190815260200160002060009054906101000a900460ff16610a4c576040517f08c379a0000000000000000000000000000000000000000000000000000000008152600401610a439061161b565b60405180910390fd5b600015156005600083815260200190815260200160002060003373ffffffffffffffffffffffffffffffffffffffff1673ffffffffffffffffffffffffffffffffffffffff16815260200190815260200160002060009054906101000a900460ff16151514610af0576040517f08c379a0000000000000000000000000000000000000000000000000000000008152600401610ae79061159b565b60405180910390fd5b60016005600083815260200190815260200160002060003373ffffffffffffffffffffffffffffffffffffffff1673ffffffffffffffffffffffffffffffffffffffff16815260200190815260200160002060006101000a81548160ff0219169083151502179055506001600460008381526020019081526020016000206003016000828254610b8091906116dc565b92505081905550610b908161057e565b15610bfb5760016004600083815260200190815260200160002060020160006101000a81548160ff02191690836002811115610bf5577f4e487b7100000000000000000000000000000000000000000000000000000000600052602160045260246000fd5b02179055505b50565b6000610c0c85858585610e89565b9050610c17816109c0565b5050505050565b60025481565b60016002811115610c5e577f4e487b7100000000000000000000000000000000000000000000000000000000600052602160045260246000fd5b6004600083815260200190815260200160002060020160009054906101000a900460ff166002811115610cba577f4e487b7100000000000000000000000000000000000000000000000000000000600052602160045260246000fd5b14610cfa576040517f08c379a0000000000000000000000000000000000000000000000000000000008152600401610cf1906115fb565b60405180910390fd5b60006004600083815260200190815260200160002090508060010154471015610d58576040517f08c379a0000000000000000000000000000000000000000000000000000000008152600401610d4f9061157b565b60405180910390fd5b60008160000160009054906101000a900473ffffffffffffffffffffffffffffffffffffffff1673ffffffffffffffffffffffffffffffffffffffff16826001015483600401604051610dab91906114b2565b60006040518083038185875af1925050503d8060008114610de8576040519150601f19603f3d011682016040523d82523d6000602084013e610ded565b606091505b5050905080610e31576040517f08c379a0000000000000000000000000000000000000000000000000000000008152600401610e28906115bb565b60405180910390fd5b60028260020160006101000a81548160ff02191690836002811115610e7f577f4e487b7100000000000000000000000000000000000000000000000000000000600052602160045260246000fd5b0217905550505050565b60008060035490506040518060a001604052808773ffffffffffffffffffffffffffffffffffffffff16815260200186815260200160006002811115610ef8577f4e487b7100000000000000000000000000000000000000000000000000000000600052602160045260246000fd5b81526020016000815260200185858080601f016020809104026020016040519081016040528093929190818152602001838380828437600081840152601f19601f820116905080830192505050505050508152506004600083815260200190815260200160002060008201518160000160006101000a81548173ffffffffffffffffffffffffffffffffffffffff021916908373ffffffffffffffffffffffffffffffffffffffff1602179055506020820151816001015560408201518160020160006101000a81548160ff02191690836002811115611001577f4e487b7100000000000000000000000000000000000000000000000000000000600052602160045260246000fd5b021790555060608201518160030155608082015181600401908051906020019061102c929190611056565b5090505060016003600082825461104391906116dc565b9250508190555080915050949350505050565b828054611062906117d2565b90600052602060002090601f01602090048101928261108457600085556110cb565b82601f1061109d57805160ff19168380011785556110cb565b828001600101855582156110cb579182015b828111156110ca5782518255916020019190600101906110af565b5b5090506110d891906110dc565b5090565b5b808211156110f55760008160009055506001016110dd565b5090565b60008135905061110881611a1b565b92915050565b60008083601f84011261112057600080fd5b8235905067ffffffffffffffff81111561113957600080fd5b60208301915083600182028301111561115157600080fd5b9250929050565b60008135905061116781611a32565b92915050565b60006020828403121561117f57600080fd5b600061118d848285016110f9565b91505092915050565b600080600080606085870312156111ac57600080fd5b60006111ba878288016110f9565b94505060206111cb87828801611158565b935050604085013567ffffffffffffffff8111156111e857600080fd5b6111f48782880161110e565b925092505092959194509250565b60006020828403121561121457600080fd5b600061122284828501611158565b91505092915050565b6000806040838503121561123e57600080fd5b600061124c85828601611158565b925050602061125d858286016110f9565b9150509250929050565b6000611273838361127f565b60208301905092915050565b61128881611732565b82525050565b61129781611732565b82525050565b60006112a88261167b565b6112b2818561169e565b93506112bd83611656565b8060005b838110156112ee5781516112d58882611267565b97506112e083611691565b9250506001810190506112c1565b5085935050505092915050565b61130481611744565b82525050565b600061131582611686565b61131f81856116af565b935061132f81856020860161179f565b611338816118da565b840191505092915050565b60008154611350816117d2565b61135a81866116c0565b945060018216600081146113755760018114611386576113b9565b60ff198316865281860193506113b9565b61138f85611666565b60005b838110156113b157815481890152600182019150602081019050611392565b838801955050505b50505092915050565b6113cb8161178d565b82525050565b60006113de6026836116cb565b91506113e9826118eb565b604082019050919050565b60006114016011836116cb565b915061140c8261193a565b602082019050919050565b6000611424601d836116cb565b915061142f82611963565b602082019050919050565b60006114476011836116cb565b91506114528261198c565b602082019050919050565b600061146a6018836116cb565b9150611475826119b5565b602082019050919050565b600061148d6009836116cb565b9150611498826119de565b602082019050919050565b6114ac81611783565b82525050565b60006114be8284611343565b915081905092915050565b60006020820190506114de600083018461128e565b92915050565b600060a0820190506114f9600083018861128e565b61150660208301876114a3565b61151360408301866113c2565b61152060608301856114a3565b8181036080830152611532818461130a565b90509695505050505050565b60006020820190508181036000830152611558818461129d565b905092915050565b600060208201905061157560008301846112fb565b92915050565b60006020820190508181036000830152611594816113d1565b9050919050565b600060208201905081810360008301526115b4816113f4565b9050919050565b600060208201905081810360008301526115d481611417565b9050919050565b600060208201905081810360008301526115f48161143a565b9050919050565b600060208201905081810360008301526116148161145d565b9050919050565b6000602082019050818103600083015261163481611480565b9050919050565b600060208201905061165060008301846114a3565b92915050565b6000819050602082019050919050565b60008190508160005260206000209050919050565b600081519050919050565b600081519050919050565b6000602082019050919050565b600082825260208201905092915050565b600082825260208201905092915050565b600081905092915050565b600082825260208201905092915050565b60006116e782611783565b91506116f283611783565b9250827fffffffffffffffffffffffffffffffffffffffffffffffffffffffffffffffff038211156117275761172661184d565b5b828201905092915050565b600061173d82611763565b9050919050565b60008115159050919050565b600081905061175e82611a07565b919050565b600073ffffffffffffffffffffffffffffffffffffffff82169050919050565b6000819050919050565b600061179882611750565b9050919050565b60005b838110156117bd5780820151818401526020810190506117a2565b838111156117cc576000848401525b50505050565b600060028204905060018216806117ea57607f821691505b602082108114156117fe576117fd6118ab565b5b50919050565b600061180f82611783565b91507fffffffffffffffffffffffffffffffffffffffffffffffffffffffffffffffff8214156118425761184161184d565b5b600182019050919050565b7f4e487b7100000000000000000000000000000000000000000000000000000000600052601160045260246000fd5b7f4e487b7100000000000000000000000000000000000000000000000000000000600052602160045260246000fd5b7f4e487b7100000000000000000000000000000000000000000000000000000000600052602260045260246000fd5b6000601f19601f8301169050919050565b7f6e6f7420656e6f7567682066756e6420746f2065786563757465207472616e7360008201527f616374696f6e0000000000000000000000000000000000000000000000000000602082015250565b7f616c726561647920636f6e6669726d6564000000000000000000000000000000600082015250565b7f4661696c656420746f2065786563757465207472616e73616374696f6e000000600082015250565b7f796f7520617265206e6f74206f776e6572000000000000000000000000000000600082015250565b7f7472616e73616374696f6e206e6f7420617070726f7665640000000000000000600082015250565b7f6e6f74206f776e65720000000000000000000000000000000000000000000000600082015250565b60038110611a1857611a1761187c565b5b50565b611a2481611732565b8114611a2f57600080fd5b50565b611a3b81611783565b8114611a4657600080fd5b5056fea2646970667358221220c30b0956aff26e39d193f4f1804fdc14ce168ff2ea13fe319b8c92a64f1951a064736f6c63430008040033",
  "linkReferences": {},
  "deployedLinkReferences": {}
}